:100000000C9434000C9449000C9449000C94490061
:100010000C9449000C9449000C9449000C9449003C
:100020000C9449000C9449000C9449000C94D100A4
:100030000C9449000C9449000C9449000C9449001C
:100040000C9449000C9449000C9449000C9449000C
:100050000C9449000C9449000C9449000C944900FC
:100060000C9449000C94490011241FBECFEFD8E036
:10007000DEBFCDBF11E0A0E0B1E0E2EFF2E002C0F0
:1000800005900D92A030B107D9F70E9461010C9440
:1000900077010C9400001092B90088E48093B800B6
:1000A000089594EA9093BC009091BC009923E4F7E2
:1000B0009091B900987F983011F0903191F480932D
:1000C000BB0084E88093BC008091BC008823E4F7E7
:1000D0008091B900887F883131F0803431F480E03C
:1000E000089581E0089580E0089581E0089594EAFC
:1000F0009093BC009091BC009923E4F79091B900D3
:10010000987F983011F0903191F78093BB0094E87C
:100110009093BC009091BC009923E4F79091B900B2
:10012000987F903211F0983541F494E99093BC0097
:100130009091BC0094FDFCCFDACF08950E9451004D
:10014000089584E98093BC008091BC0084FDFCCFBD
:1001500008958093BB0084E88093BC008091BC002C
:100160008823E4F78091B900887F883211F081E01C
:10017000089580E0089584E88093BC008091BC00DD
:100180008823E4F78091BB0008951092C50087E6AC
:100190008093C40088E18093C10086E08093C20010
:1001A00008951F920F920FB60F9211240F900FBE59
:1001B0000F901F9018958091C00085FFFCCF089587
:1001C000CF93C82F0E94DB00C093C600CF91089543
:1001D0001F93CF93DF93182FD62FC42F80ED0E944B
:1001E0005100882319F00E94A10023C00E94A100A1
:1001F00080ED0E94770080E00E94A900812F0E947C
:10020000A9000E94A10080ED0E94770081E00E9479
:10021000A9008D2F0E94A9000E94A10080ED0E94DC
:10022000770082E00E94A9008C2F0E94A9000E9402
:10023000A100DF91CF911F9108951F93CF93DF937A
:1002400080ED0E94770080E00E94A90081ED0E946D
:100250009E000E94BB00182F0E94A10080ED0E940A
:10026000770081E00E94A90081ED0E949E000E941B
:10027000BB00D82F0E94A10080ED0E94770082E091
:100280000E94A90081ED0E949E000E94BB00C82F21
:100290000E94A100812F0E94E0008D2F0E94E000AB
:1002A0008C2F0E94E00080E197E205C0E0E9F1E0D8
:1002B0003197F1F701970097C9F7DF91CF911F911F
:1002C00008950E94C50080E197E205C0E0E9F1E0F1
:1002D0003197F1F701970097C9F70E944B0040E072
:1002E00060E080E00E94E8000E941D01FDCFF894CC
:0202F000FFCF3E
:00000001FF
