:100000000C9434000C9449000C9449000C94490061
:100010000C9449000C9449000C9449000C9449003C
:100020000C9449000C9449000C9449000C94D000A5
:100030000C9449000C9449000C9449000C9449001C
:100040000C9449000C9449000C9449000C9449000C
:100050000C9449000C9449000C9449000C944900FC
:100060000C9449000C94490011241FBECFEFD8E036
:10007000DEBFCDBF11E0A0E0B1E0EAE6F2E002C0F1
:1000800005900D92A030B107D9F70E940F010C9492
:1000900033010C9400001092B90088E48093B800FA
:1000A000089594EA9093BC009091BC009923E4F7E2
:1000B0009091B900987F983011F0903191F480932D
:1000C000BB0084E88093BC008091BC008823E4F7E7
:1000D0008091B900887F883131F0803431F480E03C
:1000E000089581E0089580E0089581E0089594EAFC
:1000F0009093BC009091BC009923E4F79091B900D3
:10010000987F983011F0903191F78093BB0094E87C
:100110009093BC009091BC009923E4F79091B900B2
:10012000987F903211F0983541F494E99093BC0097
:100130009091BC0094FDFCCFDACF089584E98093C0
:10014000BC008091BC0084FDFCCF08958093BB006F
:1001500084E88093BC008091BC008823E4F7809100
:10016000B900887F883211F081E0089580E0089519
:1001700084B1816084B9089585B1816085B908959D
:1001800085B18E7F85B908951092C50087E680936A
:10019000C40088E18093C10086E08093C200089586
:1001A0001F920F920FB60F9211240F900FBE0F9057
:1001B0001F9018951F93CF93DF93182FD62FC42F1E
:1001C00080ED0E945100882319F00E949E0023C0F8
:1001D0000E949E0080ED0E94770080E00E94A600B1
:1001E000812F0E94A6000E949E0080ED0E94770051
:1001F00081E00E94A6008D2F0E94A6000E949E0012
:1002000080ED0E94770082E00E94A6008C2F0E9461
:10021000A6000E949E00DF91CF911F9108950E9439
:10022000C40080E197E205C0E0E9F1E03197F1F721
:1002300001970097C9F70E944B0040E060E080E022
:100240000E94DA000E94B8000E94BC0080E29EE496
:1002500005C0E0E9F1E03197F1F701970097C9F7A0
:0A0260000E94C000F1CFF894FFCF18
:00000001FF
