S015000054656D70657261727572424D502E7372656309
S11300000C9475000C9492000C9492000C94920041
S11300100C9492000C9492000C9492000C94920014
S11300200C9492000C9492000C9492000C94920004
S11300300C9492000C9492000C9492000C949200F4
S11300400C9492000C9492000C944F040C947D0434
S11300500C9492000C9492000C9492000C949200D4
S11300600C9492000C94920007634236B79BD8A775
S11300701A39685618AEBAAB558C1D3CB7CC5763C9
S1130080BD6DEDFD753EF6177231BF000000803F77
S113009008000000BE922449123EABAAAA2ABECD93
S11300A0CCCC4C3E00000080BEABAAAAAA3E000005
S11300B00000BF000000803F0000000000084178FD
S11300C0D3BB4387D1133D190E3CC3BD4282AD2B34
S11300D03E68EC8276BED98FE1A93E4C80EFFFBE2C
S11300E001C4FF7F3F000000000011241FBECFEFBA
S11300F0D8E0DEBFCDBF11E0A0E0B1E0E2E0F3E183
S113010002C005900D92A834B107D9F721E0A8E404
S1130110B1E001C01D92AF3AB207E1F70E941705A2
S11301200C947F090C940000CF93DF93D82FC62F33
S11301308CEE0E94F7038D2F0E9429048C2F0E94BD
S113014029040E942104DF91CF9108950F931F93F6
S1130150CF93DF93C82F8B01D42F8CEE0E94F7032B
S11301608C2F0E9429048DEE0E941E04C0E016C04C
S11301702C2F30E08D2F90E001972817390739F4A0
S11301800E944504F801EC0FF11D808306C00E9413
S11301903B04F801EC0FF11D8083CF5FCD1740F3D2
S11301A00E942104DF91CF911F910F9108958AE15C
S11301B0E8E4F1E0DF011D928A95E9F74AE1BF0125
S11301C088E80E94A6000895CF93DF931F92CDB7CD
S11301D0DEB741E0BE016F5F7F4F83EF0E94A60050
S11301E089810F90DF91CF91089520E2829FC00111
S11301F011246770262F30E0220F331F220F331F84
S1130200282B4370622F642B84EF0E94940008957E
S113021020E2829FC00111246770262F30E0220F54
S1130220331F220F331F282B4170622F642B85EF5D
S11302300E9494000895CF93DF931F92CDB7DEB749
S11302400E94CB0383E08A95F1F70000198241E014
S1130250BE016F5F7F4F80ED0E94A60089818835C3
S113026071F40E94D70040E064E080E00E9408013D
S113027043E065E082E00E94F50081E001C080E097
S11302800F90DF91CF9108954F925F926F927F927A
S11302908F929F92AF92BF92CF92DF92EF92FF9292
S11302A0CF93DF93CDB7DEB72A970FB6F894DEBFAE
S11302B00FBECDBF46E0BE016F5F7F4F87EF0E9448
S11302C0A6008980912CA12CB12CB501A401032E88
S11302D03CE0440F551F661F771F3A95D1F7302D28
S11302E08A81882E912CA12CB12C880C991CAA1CD3
S11302F0BB1C880C991CAA1CBB1C880C991CAA1C2E
S1130300BB1C880C991CAA1CBB1C842A952AA62AEF
S1130310B72A8B8182958F70A5019401282B2F8396
S1130320388749875A87CC80D12CE12CF12CB7012E
S1130330A601032E3CE0440F551F661F771F3A9514
S1130340D1F7302D8D81C82ED12CE12CF12CCC0C81
S1130350DD1CEE1CFF1CCC0CDD1CEE1CFF1CCC0CAD
S1130360DD1CEE1CFF1CCC0CDD1CEE1CFF1CC42A87
S1130370D52AE62AF72A8E8182958F70C82AB7017A
S1130380A601689412F87595679557954795169444
S1130390D1F7E8E4F1E040805180612C712CD30165
S11303A0C201880F991FAA1FBB1F9A01AB01281B0A
S11303B0390B4A0B5B0BA281B3810E9427094B01C5
S11303C05C01072E7BE0B594A794979487947A9563
S11303D0D1F7702DD701C601689413F8B595A79588
S11303E0979587951694D1F7BC01CD0164197509C9
S11303F0860997099B01AC010E94EA089B01AC01A4
S1130400012E1CE055954795379527951A95D1F7F8
S1130410102DA481B5810E9427096B017C010B2E4C
S1130420BEE0F594E794D794C794BA95D1F7B02D6C
S1130430C80CD91CEA1CFB1CD701C601880F991FE4
S1130440AA1FBB1F880F991FAA1FBB1F8C0D9D1DC0
S1130450AE1DBF1D80589F4FAF4FBF4F892F9A2F9E
S1130460AB2FBB27A7FDBA958093A7019093A80152
S1130470A093A901B093AA01F594E794D794C794E3
S11304803AEFD31AE108F108C701B60195958795AB
S11304907795679595958795779567959B01AC01B9
S11304A00E94EA084B015C019B01AC01012E1BE098
S11304B055954795379527951A95D1F7102DA0890D
S11304C0B1890E9427092B013C01A685B785A701A4
S11304D096010E942709DC01CB01880F991FAA1FEE
S11304E0BB1F480E591E6A1E7B1E75946794579451
S11304F04794759467945794479484859585092EF9
S1130500000CAA0BBB0BDC0199278827480E591E47
S11305106A1E7B1EA285B385A5019401012E1DE0F0
S113052055954795379527951A95D1F7102D0E9423
S113053027094B015C01689412F8B594A794979429
S113054087941694D1F7A085B185A70196010E94DE
S11305502709DC01CB01B595A79597958795880D5B
S1130560991DAA1DBB1D072E72E1B595A7959795F8
S113057087957A95D1F7702D9C01AD0130584F4F76
S11305805F4FA681B7810E941C096B017C010B2E71
S1130590BFE0F594E794D794C794BA95D1F7B02DFA
S11305A0C114D104E104F10449F41092AB01109296
S11305B0AC011092AD011092AE01B3C0032E3CE029
S11305C075946794579447943A95D1F7302D8F8159
S11305D09885A985BA85B095A095909581959F4FEA
S11305E0AF4FBF4F9C01AD01241935094609570986
S11305F0A5E3BCE00E941C09805B9C4399238CF01A
S1130600660F771F881F991FA70196010E94FA0899
S11306102093AB013093AC014093AD015093AE01F4
S113062012C0A70196010E94FA08DA01C901880FD5
S1130630991FAA1FBB1F8093AB019093AC01A09399
S1130640AD01B093AE01E8E4F1E0A688B788C090AC
S1130650AB01D090AC01E090AD01F090AE01C701C8
S1130660B601689412F896958795779567951694D0
S1130670D1F79B01AC010E94EA089B01AC01012E59
S11306801DE056954795379527951A95D1F7102D66
S1130690D5010E9427094B015C01072E7CE0B5942B
S11306A0A794979487947A95D1F7702DA701960112
S11306B05695479537952795569547953795279598
S11306C0A489B5890E942709DC01CB01072E7DE0AE
S11306D0B595A795979587957A95D1F7702D880D3F
S11306E0991DAA1DBB1D82889388092C000CAA0899
S11306F0BB08880D991DAA1DBB1D689413F8B595F8
S1130700A795979587951694D1F78C0D9D1DAE1DD1
S1130710BF1D8093AB019093AC01A093AD01B09346
S1130720AE012A960FB6F894DEBF0FBECDBFDF919F
S1130730CF91FF90EF90DF90CF90BF90AF909F90BC
S11307408F907F906F905F904F9008956091AB0170
S11307507091AC018091AD019091AE010E946A0646
S113076020E836EE45EC57E40E94C20521E03EED58
S113077042E45EE30E9465079B01AC0160E070E027
S113078080E89FE30E9455052BE43AE34DEB57E3E1
S11307900E94C20508951092B90088E48093B800BD
S11307A0089594EA9093BC009091BC009923E4F7D7
S11307B09091B900987F983011F0903191F4809322
S11307C0BB0084E88093BC008091BC008823E4F7DC
S11307D08091B900887F883131F0803431F480E031
S11307E0089581E0089580E0089581E0089594EAF1
S11307F09093BC009091BC009923E4F79091B900C8
S1130800987F983011F0903191F78093BB0094E871
S11308109093BC009091BC009923E4F79091B900A7
S1130820987F903211F0983541F494E99093BC008C
S11308309091BC0094FDFCCFDACF08950E94D103BF
S1130840089584E98093BC008091BC0084FDFCCFB2
S113085008958093BB0084E88093BC008091BC0021
S11308608823E4F78091B900887F883211F081E011
S1130870089580E0089584EC8093BC008091BC00CE
S11308808823E4F78091BB00089584E88093BC003A
S11308908091BC008823E4F78091BB0008951F92E7
S11308A00F920FB60F9211242F938F939F93EF9370
S11308B0FF938091C0002091C6008C71E091640187
S11308C0EF5FEF7190916301E91739F0E0936401F0
S11308D0F0E0E959FE4F208301C082E0909162016B
S11308E0892B80936201FF91EF919F918F912F91BA
S11308F00F900FBE0F901F9018951F920F920FB676
S11309000F9211248F939F93EF93FF93909166011D
S113091080916501981769F0E0916501EF5FEF71CF
S1130920E0936501F0E0E957FE4F80818093C600B3
S113093005C0E1ECF0E080818F7D8083FF91EF9131
S11309409F918F910F900FBE0F901F90189510924A
S11309506601109265011092640110926301282FC0
S1130960392F33231CF422E02093C0009078909315
S1130970C5008093C40088E98093C10086E0809319
S1130980C2000895209166012F5F2F719091650137
S11309902917E1F3E22FF0E0E957FE4F808320931B
S11309A06601E1ECF0E08081806280830895CF935A
S11309B0DF93EC0103C021960E94C2048881811157
S11309C0FACFDF91CF910895CF92DF92EF92FF9209
S11309D0CF93DF93CDB7DEB72A970FB6F894DEBF77
S11309E00FBECDBF6A017B010E94D70480E091E075
S11309F00E94D7042AE0AE014F5F5F4FC701B601E2
S1130A000E943E09CE0101960E94D70484E091E041
S1130A100E94D7042A960FB6F894DEBF0FBECDBF4E
S1130A20DF91CF91FF90EF90DF90CF90089587E60C
S1130A3090E00E94A7040E94CB030E941B017894BB
S1130A400E94E400482F50E060E070E086E091E00E
S1130A500E94E4040E9444014091A7015091A8011E
S1130A606091A9017091AA018DE091E00E94E404D3
S1130A704091AB015091AC016091AD017091AE0118
S1130A8081E291E00E94E4040E94A60320E030E0A9
S1130A9048EC52E40E94F8060E943406AB01BC0103
S1130AA084E391E00E94E404FFCF5058BB27AA27B7
S1130AB00E946D050C94BE060E94B00638F00E9498
S1130AC0B70620F039F49F3F19F426F40C94AD06D0
S1130AD00EF4E095E7FB0C94A706E92F0E94CF06DD
S1130AE058F3BA17620773078407950720F079F45F
S1130AF0A6F50C94F1060EF4E0950B2EBA2FA02D5A
S1130B000B01B90190010C01CA01A0011124FF27B6
S1130B10591B99F0593F50F4503E68F11A16F040B1
S1130B20A22F232F342F4427585FF3CF46953795B0
S1130B302795A795F0405395C9F77EF41F16BA0B75
S1130B40620B730B840BBAF09150A1F0FF0FBB1F23
S1130B50661F771F881FC2F70EC0BA0F621F731F6C
S1130B60841F48F4879577956795B795F7959E3FC9
S1130B7008F0B0CF9395880F08F09927EE0F97955A
S1130B80879508950E94D6050C94BE060E94B70668
S1130B9058F00E94B00640F029F45F3F29F00C940D
S1130BA0A70651110C94F2060C94AD060E94CF06D0
S1130BB068F39923B1F3552391F3951B550BBB2788
S1130BC0AA2762177307840738F09F5F5F4F220FCD
S1130BD0331F441FAA1FA9F335D00E2E3AF0E0E8C4
S1130BE032D091505040E695001CCAF72BD0FE2F0E
S1130BF029D0660F771F881FBB1F261737074807A2
S1130C00AB07B0E809F0BB0B802DBF01FF27935859
S1130C105F4F3AF09E3F510578F00C94A7060C9470
S1130C20F2065F3FE4F3983ED4F386957795679593
S1130C30B795F7959F5FC9F7880F911D969587958E
S1130C4097F90895E1E0660F771F881FBB1F6217AD
S1130C5073078407BA0720F0621B730B840BBA0B6B
S1130C60EE1F88F7E09508950E943B066894B11141
S1130C700C94F20608950E94D70688F09F5798F0C6
S1130C80B92F9927B751B0F0E1F0660F771F881F8D
S1130C90991F1AF0BA95C9F714C0B13091F00E94A7
S1130CA0F106B1E008950C94F106672F782F882798
S1130CB0B85F39F0B93FCCF3869577956795B395CE
S1130CC0D9F73EF490958095709561957F4F8F4F3D
S1130CD09F4F0895E89409C097FB3EF49095809542
S1130CE0709561957F4F8F4F9F4F9923A9F0F92FEE
S1130CF096E9BB279395F695879577956795B7956C
S1130D00F111F8CFFAF4BB0F11F460FF1BC06F5F51
S1130D107F4F8F4F9F4F16C0882311F096E911C063
S1130D20772321F09EE8872F762F05C0662371F084
S1130D3096E8862F70E060E02AF09A95660F771F98
S1130D40881FDAF7880F9695879597F9089597F98C
S1130D509F6780E870E060E008959FEF80EC08955D
S1130D6000240A9416161706180609060895002486
S1130D700A9412161306140605060895092E039400
S1130D80000C11F4882352F0BB0F40F4BF2B11F474
S1130D9060FF04C06F5F7F4F8F4F9F4F089557FDD3
S1130DA09058440F551F59F05F3F71F04795880FD5
S1130DB097FB991F61F09F3F79F08795089512166C
S1130DC013061406551FF2CF4695F1DF08C0161618
S1130DD017061806991FF1CF8695710561050894C9
S1130DE00895E894BB2766277727CB0197F90895E0
S1130DF00E940B070C94BE060E94B00638F00E94B5
S1130E00B70620F0952311F00C94A7060C94AD06B8
S1130E1011240C94F2060E94CF0670F3959FC1F33F
S1130E20950F50E0551F629FF001729FBB27F00D94
S1130E30B11D639FAA27F00DB11DAA1F649F6627E9
S1130E40B00DA11D661F829F2227B00DA11D621F38
S1130E50739FB00DA11D621F839FA00D611D221FF2
S1130E60749F3327A00D611D231F849F600D211DD6
S1130E70822F762F6A2F11249F5750409AF0F1F059
S1130E8088234AF0EE0FFF1FBB1F661F771F881FC2
S1130E9091505040A9F79E3F510580F00C94A7064D
S1130EA00C94F2065F3FE4F3983ED4F3869577956D
S1130EB06795B795F795E7959F5FC1F7FE2B880F68
S1130EC0911D9695879597F90895FA01EE0FFF1FE6
S1130ED0309621053105A1F16115710561F4803861
S1130EE0BFE39B0749F168949038810561F080382D
S1130EF0BFEF9B0741F099234AF5FF3FE105310518
S1130F00210519F1E8940894E795D901AA2329F455
S1130F10AB2FBE2FF85FD0F310C0FF5F70F4A6951F
S1130F20E0F7F73950F019F0FF3A38F49F779F93C0
S1130F300DD00F9007FC9058089546F00C94AD0620
S1130F4060E070E080E89FE308954FE79F775F9348
S1130F504F933F932F930E9460082F913F914F919D
S1130F605F910E94F8060C94BD0729F416F00C94C6
S1130F70A7060C94F1060C94AD060E94D706A8F3BC
S1130F809638A0F707F80F92E8942BE33AEA48EB77
S1130F905FE70E940E070F920F920F924DB75EB754
S1130FA00F920E94A808E8E6F0E00E94EF074F9134
S1130FB05F91EF91FF91E595EE1FFF1F49F0FE57FA
S1130FC0E0684427EE0F441FFA95E1F74195550B6D
S1130FD00E9422080F9007FE0C9416080895DF93D0
S1130FE0CF931F930F93FF92EF92DF927B018C01BB
S1130FF0689406C0DA2EEF010E940B07FE01E89404
S1131000A5912591359145915591A6F3EF010E9443
S11310106D05FE019701A801DA9469F7DF90EF905E
S1131020FF900F911F91CF91DF9108959B01AC0127
S113103060E070E080E89FE30C94C2050C94A7067E
S11310400C94DC080E94D706D8F39923C9F3940FB3
S1131050511DA3F39150504094F059F0882332F07D
S1131060660F771F881F91505040C1F79E3F51056E
S11310702CF7880F911D9695879597F908955F3FF2
S1131080ACF0983E9CF0BB27869577956795B7950D
S113109008F4B1609395C1F7BB0F58F711F460FFE2
S11310A0E8CF6F5F7F4F8F4F9F4FE3CF0C94F206D3
S11310B016F00C94DC080C94AD0668940C94A70606
S11310C00E94D706A8F39923C1F3AEF3DF93CF931D
S11310D01F930F93FF92C92FDD2788232AF02197AE
S11310E0660F771F881FDAF720E030E040E85FEBF7
S11310F09FE3883920F0803E38F021968F770E9454
S11311005605E0E9F0E004C00E945605EDEBF0E07E
S11311100E94EF078B01BE01EC01FB2E6F57710992
S11311207595771F880B990B0E946C0628E132E7AE
S113113041E35FE30E940B07AF2D9801AE01FF90DE
S11311400F911F91CF91DF910E946D050C94BE0603
S1131150FA01DC01AA0FBB1F9B01AC01BF5728F4A5
S1131160222733274427507820C0B75190F4AB2F5F
S11311700024469537952795011CA395D2F30020AA
S113118071F0220F331F441FB395DAF30ED00C9481
S1131190550561307105A0E88A07B94630F49B0112
S11311A0AC016627772788279078309621F0208332
S11311B031834283538308959F3F31F0915020F44B
S11311C0879577956795B795880F911D969587951F
S11311D097F90895DB018F939F930E941C09BF9197
S11311E0AF91A29F800D911DA39F900DB29F900D72
S11311F011240895A1E21A2EAA1BBB1BFD010DC0E8
S1131200AA1FBB1FEE1FFF1FA217B307E407F507B2
S113121020F0A21BB30BE40BF50B661F771F881F8E
S1131220991F1A9469F760957095809590959B0124
S1131230AC01BD01CF0108950E942F09A59F900D17
S1131240B49F900DA49F800D911D11240895B7FFA4
S11312500C941C090E941C09821B930B0895A29FE5
S1131260B001B39FC001A39F700D811D1124911D76
S1131270B29F700D811D1124911D0895BB272A3042
S113128051F4992342F4BDE290958095709561954F
S11312907F4F8F4F9F4F0C944E09BB27FA01A62F07
S11312A06217710581059105330B30FB66F0AA279F
S11312B0660F771F881F991FAA1FA21710F0A21B81
S11312C063953850A9F7A05DAA3308F0A95DA193EE
S11312D036F7B111B1931082CA010C946F09DC0185
S11312E0FC01672F71917723E1F7329704C07C9159
S11312F06D9370836291AE17BF07C8F30895F89495
S1051300FFCF19
S1131302203D20000A0073746174757300207465B3
S11313126D70657261747572652078203130302089
S113132200207072657373757265207820313030D5
S11313322020200020616C74697475646520782013
S10B13423130302020200000AE
S9030000FC
