:100000000C9434000C943E000C943E000C943E0082
:100010000C943E000C943E000C943E000C943E0068
:100020000C943E000C943E000C943E000C943E0058
:100030000C943E000C943E000C943E000C943E0048
:100040000C943E000C943E000C943E000C943E0038
:100050000C943E000C943E000C943E000C943E0028
:100060000C943E000C943E0011241FBECFEFD8E04C
:10007000DEBFCDBF0E9456000C9475000C940000AA
:10008000E4ECF0E01182108286E08093C20088E107
:100090008093C1001092C50087E6808308959091F7
:1000A000C00095FFFCCF8093C60008950E944000D9
:1000B00081E40E944F0082E50E944F008EE40E947E
:1000C0004F0081E40E944F0082E40E944F008AE0CA
:1000D0000E944F0080E197E205C0E0E9F1E031972E
:0E00E000F1F701970097C9F7E3CFF894FFCF2F
:00000001FF
