S01700004763634170706C69636174696F6E312E737265635B
S11300000C9434000C9449000C9449000C9449005D
S11300100C9449000C9449000C9449000C94490038
S11300200C9449000C9449000C9449000C94490028
S11300300C9449000C9449000C9449000C94490018
S11300400C9449000C9449000C9449000C94490008
S11300500C9449000C9449000C9449000C944900F8
S11300600C9449000C94490011241FBECFEFD8E032
S1130070DEBFCDBF11E0A0E0B1E0E4E0F2E002C0F9
S113008005900D92A431B107D9F70E94C5000C94D4
S113009000010C9400001092C50087E68093C40010
S11300A088E18093C10086E08093C2000895809126
S11300B0C00085FFFCCF0895CF93DF93EC010E942D
S11300C05700209759F010C0FE01E05FFE4F808179
S11300D08093C6000E945700219602C0C0E0D0E081
S11300E0C430D1058CF34EC0C130D10589F40AC0A7
S11300F0FE01E45FFE4F80818093C6000E9457009A
S1130100219602C0C0E0D0E0C430D1058CF33AC0DF
S1130110C230D10589F40AC0FE01E85FFE4F808138
S11301208093C6000E945700219602C0C0E0D0E030
S1130130C430D1058CF326C0C330D10589F40AC07C
S1130140FE01EC5FFE4F80818093C6000E94570041
S1130150219602C0C0E0D0E0C430D1058CF312C0B7
S1130160249781F40AC0FE01E050FF4F8081809300
S1130170C6000E945700219602C0C0E0D0E0C430FF
S1130180D1058CF3DF91CF9108950E944B0080E15B
S113019097E205C0E0E9F1E03197F1F701970097A4
S11301A0C9F783E090E00E945C0080E593EC05C011
S11301B0E0E9F1E03197F1F701970097C9F781E0A1
S11301C090E00E945C0080E593EC05C0E0E9F1E07A
S11301D03197F1F701970097C9F780E090E00E940A
S11301E05C008FEF9FEF05C0E0E9F1E03197F1F794
S11301F001970097C9F782E090E00E945C00D1CF9C
S1070200F894FFCF9C
S113020468014057680120776801029568010196E6
S107021468010493E2
S9030000FC
