:100000000C9475000C9487000C9487000C94870066
:100010000C9487000C9487000C9487000C94870044
:100020000C9487000C9487000C9487000C9428048F
:100030000C9487000C9487000C9487000C94870024
:100040000C9487000C9487000C9487000C94870014
:100050000C9487000C9487000C9487000C94870004
:100060000C9487000C94870007634236B79BD8A78F
:100070001A39685618AEBAAB558C1D3CB7CC5763CD
:10008000BD6DEDFD753EF6177231BF000000803F7B
:1000900008000000BE922449123EABAAAA2ABECD97
:1000A000CCCC4C3E00000080BEABAAAAAA3E000009
:1000B0000000BF000000803F000000000008417801
:1000C000D3BB4387D1133D190E3CC3BD4282AD2B38
:1000D0003E68EC8276BED98FE1A93E4C80EFFFBE30
:1000E00001C4FF7F3F000000000011241FBECFEFBE
:1000F000D8E0DEBFCDBF21E0A0E0B1E001C01D929D
:10010000A232B207E1F70E9471050C9442090C94E7
:1001100000001092B90088E48093B800089594EA32
:100120009093BC009091BC0097FFFCCF9091B900D8
:10013000987F983021F0903111F081E008958093FC
:10014000BB0084E88093BC008091BC0087FFFCCF9B
:100150008091B900887F883111F0803471F780E098
:10016000089524EA34E844E92093BC009091BC004F
:1001700097FFFCCF9091B900987F983011F09031A3
:1001800099F78093BB003093BC009091BC0097FF1F
:10019000FCCF9091B900987F903211F0983539F4E6
:1001A0004093BC009091BC0094FDFCCFDDCF08953E
:1001B0000C948F0084E98093BC008091BC0084FD86
:1001C000FCCF08958093BB0084E88093BC008091AD
:1001D000BC0087FFFCCF9091B900987F81E09832F6
:1001E00009F480E00895CF93DF93D82FC62F8CEECB
:1001F0000E94B1008D2F0E94E2008C2F0E94E2002D
:10020000DF91CF910C94DA0084EC8093BC00809154
:10021000BC0087FFFCCF8091BB00089584E88093E9
:10022000BC008091BC0087FFFCCF8091BB0008958B
:10023000CF92DF92EF92FF920F931F93CF93DF93B2
:10024000C82FF62E172F042F8CEE0E94B1008C2F92
:100250000E94E2008DEE0E94D800CF2DD12F10E039
:10026000E12CF12C680181E0C81AD108E016F106F2
:1002700071F0CE14DF0419F40E940E0102C00E9436
:10028000040188838FEFE81AF80A2196EFCFDF91F7
:10029000CF911F910F91FF90EF90DF90CF900C9432
:1002A000DA00CF93DF931F92CDB7DEB70E948900AB
:1002B00085E38A95F1F7198241E0BE016F5F7F4FB8
:1002C00080ED0E94180189818835B1F48AE1E0E06F
:1002D000F1E0DF011D928A95E9F74AE1BF0188E864
:1002E0000E94180160E185EF0E94F30067E584EF4A
:1002F0000E94F30081E001C080E00F90DF91CF9178
:100300000895CF93DF931F92CDB7DEB741E0BE01D2
:100310006F5F7F4F83EF0E94180189810F90DF91FB
:10032000CF910895677024E0629FB001112420E20C
:10033000829FC0011124682B4370642B84EF0C94BE
:10034000F300677024E0629FB001112420E2829FD5
:10035000C0011124682B4170642B85EF0C94F300CD
:100360004F925F926F927F928F929F92AF92BF92C5
:10037000CF92DF92EF92FF920F931F93CF93DF9371
:1003800000D000D000D0CDB7DEB746E0BE016F5F31
:100390007F4F87EF0E941801E981FA811B818C81D0
:1003A00090E0A0E0B0E0AC01BD01ACE0440F551F0F
:1003B000661F771FAA95D1F79D81892F90E0A0E055
:1003C000B0E004E0880F991FAA1FBB1F0A95D1F760
:1003D000842B952BA62BB72B2E8122952F70822B49
:1003E000409100015091010160E070E06C017D01DD
:1003F00024E0F594E794D794C7942A95D1F7C41ACA
:10040000D50AE60AF70A33E0B595A795979587953B
:100410003A95D1F7440F551F661F771F4C015D01B8
:10042000841A950AA60AB70AA5019401A0910201AF
:10043000B09103010E94CC054B015C018BE0B594A7
:10044000A794979487948A95D1F7A7019601C7013D
:10045000B6010E948F059B01AC019CE05595479524
:10046000379527959A95D1F7A0910401B091050190
:100470000E94CC05DC01CB012EE0B595A7959795A0
:1004800087952A95D1F775016401C80ED91EEA1E19
:10049000FB1EA5E0B0E0A70196010E94C105DC01AA
:1004A000CB0180589F4FAF4FBF4F892F9A2FAB2F53
:1004B000BB27A7FDBA9580931A0190931B01A093C7
:1004C0001C01B0931D01F594E794D794C7948AEF6B
:1004D000D81AE108F108C701B60152E09595879551
:1004E000779567955A95D1F79B01AC010E948F05CE
:1004F0004B015C01A0910A01B0910B019B01AC0181
:100500006DE055954795379527956A95D1F70E94E7
:10051000CC052B013C0173E0759467945794479484
:100520007A95D1F7A0910801B0910901A701960130
:100530000E94CC05DC01CB01B595A79597958795D1
:10054000840D951DA61DB71D22E1B595A79597951C
:1005500087952A95D1F79C01AD0130584F4F5F4FD9
:10056000A0910601B09107010E94C1052B013C0139
:100570003FE075946794579447943A95D1F74114A6
:1005800051046104710449F410921E0110921F017C
:100590001092200110922101FAC0A50194016BE094
:1005A00055954795379527956A95D1F7A0911001F4
:1005B000B09111010E94CC054B015C01A0910E018C
:1005C000B0910F01A70196010E94CC05DC01CB017F
:1005D000880F991FAA1FBB1F880D991DAA1DBB1D3F
:1005E00002E0B595A795979587950A95D1F74F2F76
:1005F00050E060E070E024E0440F551F661F771F55
:100600002A95D1F712951F706A017B01C12A4E2FDE
:1006100050E060E070E03CE0440F551F661F771F1C
:100620003A95D1F797018601042B152B262B372BF2
:10063000C0900C01D0900D010D2C000CEE08FF08AD
:100640007601DD24CC248C0D9D1DAE1DBF1D5CE00C
:10065000B595A795979587955A95D1F7A9019801D2
:10066000280F391F4A1F5B1FABECB3EF0E94CF0569
:10067000805B9C4397FD11C0660F771F881F991FF1
:10068000A30192010E949F0520931E0130931F0138
:10069000409320015093210112C0A30192010E94B6
:1006A0009F05DA01C901880F991FAA1FBB1F8093FC
:1006B0001E0190931F01A0932001B0932101C090CF
:1006C0001E01D0901F01E0902001F0902101C70190
:1006D000B60123E096958795779567952A95D1F78A
:1006E0009B01AC010E948F059B01AC016DE056950A
:1006F0004795379527956A95D1F7A0911601B09146
:1007000017010E94CC054B015C017CE0B594A794D5
:10071000979487947A95D1F7A7019601E2E05695D0
:10072000479537952795EA95D1F7A0911401B09197
:1007300015010E94CC05DC01CB01FDE0B595A79524
:1007400097958795FA95D1F7880D991DAA1DBB1D20
:100750004091120150911301052E000C660B770B8E
:10076000840F951FA61FB71F14E0B595A795979501
:1007700087951A95D1F78C0D9D1DAE1DBF1D8093D9
:100780001E0190931F01A0932001B0932101269692
:100790000FB6F894DEBF0FBECDBFDF91CF911F9192
:1007A0000F91FF90EF90DF90CF90BF90AF909F9010
:1007B0008F907F906F905F904F90089560911E0191
:1007C00070911F0180912001909121010E94C20629
:1007D00020E836EE45EC57E40E94500621E03EED5D
:1007E00042E45EE30E9450079B01AC0160E070E0D0
:1007F00080E89FE30E94E3052BE43AE34DEB57E3E7
:100800000E94500608951092C50087E68093C400A8
:1008100088E18093C10086E08093C2000895F89437
:1008200010928000E1E8F0E010828AEF90E090936F
:1008300089008093880080818860808380818360C4
:100840008083EFE6F0E08081826080837894089571
:100850001F920F920FB60F9211240F900FBE0F90A0
:100860001F9018958091C00085FFFCCF0895CF930D
:10087000C82F0E943204C093C600CF9108950E94F1
:1008800032048091C6000895CF93DF93EC010E945B
:100890003204209789F488E68093C6000E943204CF
:1008A00081E08093C6000E94320484E08093C600F9
:1008B0000E94320483E94DC0C130D10581F488E63D
:1008C0008093C6000E943204C1E0C093C6000E941B
:1008D0003204C093C6000E94320486E93AC0C23096
:1008E000D10589F488E68093C6000E94320481E035
:1008F0008093C6000E94320482E08093C6000E946A
:10090000320485E926C0C330D10589F488E6809396
:10091000C6000E94320481E08093C6000E94320427
:1009200080E28093C6000E94320487E712C02497B9
:10093000B1F488E68093C6000E94320481E080937F
:10094000C6000E94320480E48093C6000E943204F4
:1009500087E58093C600DF91CF910C943204DF913C
:10096000CF910895CF93DF930E943204C6ECD0E07C
:1009700088810E9432048881DF91CF910895CF93BE
:10098000DF93C8E0D0E00E9432048091C600219736
:10099000D1F7DF91CF9108951F93CF93DF93182F55
:1009A000D62FC42F80ED0E948F00811121C00E949C
:1009B000DA0080ED0E94B10080E00E94E200812F09
:1009C0000E94E2000E94DA0080ED0E94B10081E006
:1009D0000E94E2008D2F0E94E2000E94DA0080ED6A
:1009E0000E94B10082E00E94E2008C2F0E94E2008F
:1009F000DF91CF911F910C94DA001F93CF93DF9377
:100A000080ED0E94B10080E00E94E20081ED0E9432
:100A1000D8000E940E01182F0E94DA0080ED0E947B
:100A2000B10081E00E94E20081ED0E94D8000E94A6
:100A30000E01D82F0E94DA0080ED0E94B10082E002
:100A40000E94E20081ED0E94D8000E940E01C82F92
:100A50000E94DA000E9432041093C6000E94320401
:100A6000D093C6000E943204C093C60080E197E292
:100A700020E931E0F9013197F1F70197D9F7DF91DA
:100A8000CF911F910895CF93C82F89E00E94B100A4
:100A900080E00E94E2008C2F0E94E2000E94DA00B7
:100AA0000E943204C093C600CF910895CF9389E08D
:100AB0000E94B10081E00E94E2008AE00E94D8001A
:100AC0000E940401C82F0E94DA000E943204C093E1
:100AD000C600CF9108950C9451010E9481010C949D
:100AE000B0010E94030480E197E220E931E0F901BE
:100AF0003197F1F70197D9F70E94890040E060E053
:100B000080E00E94CC04C0E9D1E00E94560580E15B
:100B100097E2FE013197F1F70197D9F7F6CFDB01A4
:100B20008F939F930E94C105BF91AF91A29F800DAB
:100B3000911DA39F900DB29F900D11240895A1E2E5
:100B40001A2EAA1BBB1BFD010DC0AA1FBB1FEE1F47
:100B5000FF1FA217B307E407F50720F0A21BB30B92
:100B6000E40BF50B661F771F881F991F1A9469F70E
:100B700060957095809590959B01AC01BD01CF016A
:100B800008950E94D405A59F900DB49F900DA49F39
:100B9000800D911D11240895B7FF0C94C1050E948A
:100BA000C105821B930B0895A29FB001B39FC001A2
:100BB000A39F700D811D1124911DB29F700D811D89
:100BC0001124911D08955058BB27AA270E94FB05A8
:100BD0000C9416070E94080738F00E940F0720F0B7
:100BE00039F49F3F19F426F40C9405070EF4E095B0
:100BF000E7FB0C94FF06E92F0E94270758F3BA176A
:100C0000620773078407950720F079F4A6F50C9422
:100C100049070EF4E0950B2EBA2FA02D0B01B90158
:100C200090010C01CA01A0011124FF27591B99F062
:100C3000593F50F4503E68F11A16F040A22F232F6E
:100C4000342F4427585FF3CF469537952795A795BE
:100C5000F0405395C9F77EF41F16BA0B620B730B65
:100C6000840BBAF09150A1F0FF0FBB1F661F771FD6
:100C7000881FC2F70EC0BA0F621F731F841F48F48B
:100C8000879577956795B795F7959E3F08F0B0CF14
:100C90009395880F08F09927EE0F979587950895FB
:100CA0000E9464060C9416070E940F0758F00E94D9
:100CB000080740F029F45F3F29F00C94FF0651111A
:100CC0000C944A070C9405070E94270768F39923A0
:100CD000B1F3552391F3951B550BBB27AA27621738
:100CE0007307840738F09F5F5F4F220F331F441F45
:100CF000AA1FA9F335D00E2E3AF0E0E832D0915079
:100D00005040E695001CCAF72BD0FE2F29D0660F65
:100D1000771F881FBB1F261737074807AB07B0E8A8
:100D200009F0BB0B802DBF01FF2793585F4F3AF0AE
:100D30009E3F510578F00C94FF060C944A075F3FE4
:100D4000E4F3983ED4F3869577956795B795F79534
:100D50009F5FC9F7880F911D9695879597F908951C
:100D6000E1E0660F771F881FBB1F621773078407B8
:100D7000BA0720F0621B730B840BBA0BEE1F88F7C7
:100D8000E0950895E89409C097FB3EF4909580950E
:100D9000709561957F4F8F4F9F4F9923A9F0F92F41
:100DA00096E9BB279395F695879577956795B795BF
:100DB000F111F8CFFAF4BB0F11F460FF1BC06F5FA5
:100DC0007F4F8F4F9F4F16C0882311F096E911C0B7
:100DD000772321F09EE8872F762F05C0662371F0D8
:100DE00096E8862F70E060E02AF09A95660F771FEC
:100DF000881FDAF7880F9695879597F9089597F9E0
:100E00009F6780E870E060E008959FEF80EC0895B0
:100E100000240A94161617061806090608950024D9
:100E20000A9412161306140605060895092E039453
:100E3000000C11F4882352F0BB0F40F4BF2B11F4C7
:100E400060FF04C06F5F7F4F8F4F9F4F089557FD26
:100E50009058440F551F59F05F3F71F04795880F28
:100E600097FB991F61F09F3F79F0879508951216BF
:100E700013061406551FF2CF4695F1DF08C016166B
:100E800017061806991FF1CF86957105610508941C
:100E90000895E894BB2766277727CB0197F9089533
:100EA000FA01EE0FFF1F309621053105A1F1611502
:100EB000710561F48038BFE39B0749F1689490386D
:100EC000810561F08038BFEF9B0741F099234AF517
:100ED000FF3FE1053105210519F1E8940894E795F4
:100EE000D901AA2329F4AB2FBE2FF85FD0F310C08D
:100EF000FF5F70F4A695E0F7F73950F019F0FF3A6C
:100F000038F49F779F930DD00F9007FC9058089569
:100F100046F00C94050760E070E080E89FE30895D8
:100F20004FE79F775F934F933F932F930E944B0818
:100F30002F913F914F915F910E94C7080C94A80791
:100F400029F416F00C94FF060C9449070C9405073D
:100F50000E942F07A8F39638A0F707F80F92E8949D
:100F60002BE33AEA48EB5FE70E94DD080F920F920D
:100F70000F924DB75EB70F920E949308E8E6F0E03B
:100F80000E94DA074F915F91EF91FF91E595EE1F77
:100F9000FF1F49F0FE57E0684427EE0F441FFA9503
:100FA000E1F74195550B0E940D080F9007FE0C9438
:100FB00001080895DF93CF931F930F93FF92EF9251
:100FC000DF927B018C01689406C0DA2EEF010E944B
:100FD000DA08FE01E894A591259135914591559146
:100FE000A6F3EF010E94FB05FE019701A801DA9428
:100FF00069F7DF90EF90FF900F911F91CF91DF91F4
:1010000008959B01AC0160E070E080E89FE30C94E0
:1010100050060C94FF060C9434090E942F07D8F355
:101020009923C9F3940F511DA3F39150504094F0AC
:1010300059F0882332F0660F771F881F9150504077
:10104000C1F79E3F51052CF7880F911D9695879506
:1010500097F908955F3FACF0983E9CF0BB278695CA
:1010600077956795B79508F4B1609395C1F7BB0F75
:1010700058F711F460FFE8CF6F5F7F4F8F4F9F4F9E
:10108000E3CF0C944A0716F00C9434090C9405072E
:1010900068940C94FF060E942F07A8F39923C1F3CC
:1010A000AEF3DF93CF931F930F93FF92C92FDD27EA
:1010B00088232AF02197660F771F881FDAF720E030
:1010C00030E040E85FEB9FE3883920F0803E38F065
:1010D00021968F770E94E405E0E9F0E004C00E94C9
:1010E000E405EDEBF0E00E94DA078B01BE01EC01B4
:1010F000FB2E6F5771097595771F880B990B0E940E
:10110000C40628E132E741E35FE30E94DA08AF2D2D
:101110009801AE01FF900F911F91CF91DF910E9436
:10112000FB050C941607FA01DC01AA0FBB1F9B01FB
:10113000AC01BF5728F4222733274427507820C01A
:10114000B75190F4AB2F0024469537952795011C95
:10115000A395D2F3002071F0220F331F441FB395E3
:10116000DAF30ED00C94E30561307105A0E88A072C
:10117000B94630F49B01AC01662777278827907821
:10118000309621F0208331834283538308950E9457
:10119000DA080C9416070E94080738F00E940F071F
:1011A00020F0952311F00C94FF060C9405071124F0
:1011B0000C944A070E94270770F3959FC1F3950F7F
:1011C00050E0551F629FF001729FBB27F00DB11DCB
:1011D000639FAA27F00DB11DAA1F649F6627B00D5B
:1011E000A11D661F829F2227B00DA11D621F739F44
:1011F000B00DA11D621F839FA00D611D221F749F52
:101200003327A00D611D231F849F600D211D822F98
:10121000762F6A2F11249F5750409AF0F1F08823BF
:101220004AF0EE0FFF1FBB1F661F771F881F9150EC
:101230005040A9F79E3F510580F00C94FF060C9496
:101240004A075F3FE4F3983ED4F386957795679518
:10125000B795F795E7959F5FC1F7FE2B880F911D16
:101260009695879597F908959F3F31F0915020F416
:10127000879577956795B795880F911D9695879572
:0812800097F90895F894FFCFDF
:00000001FF
