:100000000C9434000C943E000C943E000C943E0082
:100010000C943E000C943E000C943E000C943E0068
:100020000C943E000C943E000C943E000C94E300B3
:100030000C943E000C943E000C943E000C943E0048
:100040000C943E000C943E000C943E000C943E0038
:100050000C943E000C943E000C943E000C943E0028
:100060000C943E000C943E0011241FBECFEFD8E04C
:10007000DEBFCDBF0E94FE010C9413020C94000061
:100080001092B90088E48093B800089594EA9093A0
:10009000BC009091BC0097FFFCCF9091B900987F75
:1000A000983021F0903111F081E008958093BB00E9
:1000B00084E88093BC008091BC0087FFFCCF8091D6
:1000C000B900887F883111F0803471F780E008959D
:1000D00024EA34E844E92093BC009091BC0097FFE7
:1000E000FCCF9091B900987F983011F0903199F73A
:1000F0008093BB003093BC009091BC0097FFFCCF75
:100100009091B900987F903211F0983539F440936E
:10011000BC009091BC0094FDFCCFDDCF08950C9401
:10012000460084E98093BC008091BC0084FDFCCF34
:1001300008958093BB0084E88093BC008091BC004C
:1001400087FFFCCF9091B900987F81E0983209F445
:1001500080E0089584EC8093BC008091BC0087FF10
:10016000FCCF8091BB00089584E88093BC0080910F
:10017000BC0087FFFCCF8091BB0008951092C500A2
:1001800087E68093C40088E18093C10086E0809375
:10019000C2000895F89410928000E1E8F0E0108227
:1001A0008AEF90E090938900809388008081886036
:1001B0008083808183608083EFE6F0E080818260CD
:1001C0008083789408951F920F920FB60F92112496
:1001D0000F900FBE0F901F9018958091C00085FF63
:1001E000FCCF0895CF93C82F0E94ED00C093C600A6
:1001F000CF9108950E94ED008091C6000895CF939D
:10020000DF93EC010E94ED00209789F488E680934B
:10021000C6000E94ED0081E08093C6000E94ED00C0
:1002200084E08093C6000E94ED0083E94DC0C13098
:10023000D10581F488E68093C6000E94ED00C1E0FC
:10024000C093C6000E94ED00C093C6000E94ED005E
:1002500086E93AC0C230D10589F488E68093C600A9
:100260000E94ED0081E08093C6000E94ED0082E0D4
:100270008093C6000E94ED0085E926C0C330D105F9
:1002800089F488E68093C6000E94ED0081E08093A7
:10029000C6000E94ED0080E28093C6000E94ED003F
:1002A00087E712C02497B1F488E68093C6000E94C5
:1002B000ED0081E08093C6000E94ED0080E4809311
:1002C000C6000E94ED0087E58093C600DF91CF91C4
:1002D0000C94ED00DF91CF910895CF93DF930E94AE
:1002E000ED00C6ECD0E088810E94ED008881DF91AE
:1002F000CF910895CF93DF93C8E0D0E00E94ED0046
:100300008091C6002197D1F7DF91CF9108951F9377
:10031000CF93DF93182FD62FC42F80ED0E94460075
:10032000811121C00E94910080ED0E94680080E050
:100330000E949900812F0E9499000E94910080EDF7
:100340000E94680081E00E9499008D2F0E94990010
:100350000E94910080ED0E94680082E00E94990056
:100360008C2F0E949900DF91CF911F910C949100E6
:100370001F93CF93DF9380ED0E94680080E00E947E
:10038000990081ED0E948F000E94B400182F0E94F6
:10039000910080ED0E94680081E00E94990081ED4B
:1003A0000E948F000E94B400D82F0E94910080ED1F
:1003B0000E94680082E00E94990081ED0E948F00F7
:1003C0000E94B400C82F0E9491000E94ED0010937B
:1003D000C6000E94ED00D093C6000E94ED00C093BD
:1003E000C60080E197E220E931E0F9013197F1F7A9
:1003F0000197D9F7DF91CF911F9108950E94BE0018
:1004000080E197E220E931E0F9013197F1F70197B6
:10041000D9F70E94400040E060E080E00E94870140
:0A0420000E94B801FDCFF894FFCF51
:00000001FF
