:100000000C9475000C94FE030C9492000C949200D6
:100010000C9492000C9492000C9492000C94920018
:100020000C9492000C9492000C9492000C94920008
:100030000C9492000C94DB030C9492000C949200AC
:100040000C9492000C9492000C9492000C949200E8
:100050000C9492000C9492000C9492000C949200D8
:100060000C9492000C94920007634236B79BD8A779
:100070001A39685618AEBAAB558C1D3CB7CC5763CD
:10008000BD6DEDFD753EF6177231BF000000803F7B
:1000900008000000BE922449123EABAAAA2ABECD97
:1000A000CCCC4C3E00000080BEABAAAAAA3E000009
:1000B0000000BF000000803F000000000008417801
:1000C000D3BB4387D1133D190E3CC3BD4282AD2B38
:1000D0003E68EC8276BED98FE1A93E4C80EFFFBE30
:1000E00001C4FF7F3F000000000011241FBECFEFBE
:1000F000D8E0DEBFCDBF11E0A0E0B1E0E4EDF7E174
:1001000002C005900D92A231B107D9F721E0A2E11A
:10011000B1E001C01D92AA33B207E1F70E94F707D0
:100120000C94E80B0C9400001092B90088E48093C2
:10013000B800089594EA9093BC009091BC0097FF9A
:10014000FCCF9091B900987F983011F0903199F4DC
:100150008093BB0084E88093BC008091BC0087FF43
:10016000FCCF9091B900987F983119F081E09034DC
:1001700009F480E0089581E0089524EA34E82093AA
:10018000BC009091BC0097FFFCCF9091B900987F84
:10019000983011F0903199F78093BB003093BC00F8
:1001A0009091BC0097FFFCCF9091B900987F90325E
:1001B00011F0983541F494E99093BC009091BC0003
:1001C00094FDFCCFDCCF08950C949A0084E98093D1
:1001D000BC008091BC0084FDFCCF08958093BB00DF
:1001E00084E88093BC008091BC0087FFFCCF909195
:1001F000B900987F81E0983209F480E00895CF93A8
:10020000DF93D82FC62F8CEE0E94BD008D2F0E9449
:10021000EE008C2F0E94EE00DF91CF910C94E6004F
:1002200084EC8093BC008091BC0087FFFCCF809160
:10023000BB00089584E88093BC008091BC0087FFD8
:10024000FCCF8091BB000895CF92DF92EF92FF9296
:100250000F931F93CF93DF93082F162FD72FC42F01
:100260008CEE0E94BD00802F0E94EE008DEE0E9459
:10027000E400E12EFD2ED0E000E010E06E0181E010
:10028000C81AD1080C171D0751F4DF91CF911F91A7
:100290000F91FF90EF90DF90CF900C94E600C01686
:1002A000D10641F40E941A01F70181937F010F5F8B
:1002B0001F4FE8CF0E941001F7CFCF93DF930F922B
:1002C000CDB7DEB70E94940085E38A95F1F71982D5
:1002D00041E0BE016F5F7F4F80ED0E942401898164
:1002E0008835C9F4E0E2F1E08AE1DF011D928A95E8
:1002F000E9F74AE1BF0188E80E94240160E185EF47
:100300000E94FF0067E584EF0E94FF0081E00F90EC
:10031000DF91CF91089580E0FACFCF93DF930F92D2
:10032000CDB7DEB741E0BE016F5F7F4F83EF0E9424
:10033000240189810F90DF91CF910895660F660F98
:100340006C718295880F807E682B4370642B84EFDC
:100350000C94FF00660F660F6C718295880F807E8B
:10036000682B4170642B85EF0C94FF004F925F92D5
:100370006F927F928F929F92AF92BF92CF92DF92B5
:10038000EF92FF921F93CF93DF9300D000D000D065
:10039000CDB7DEB746E0BE016F5F7F4F87EF0E94AB
:1003A0002401F981EA811B81CC80D12CE12CF12C34
:1003B000ACE0CC0CDD1CEE1CFF1CAA95D1F78D81A6
:1003C00090E0A0E0B0E024E0880F991FAA1FBB1FB7
:1003D0002A95D1F7C82AD92AEA2AFB2A8E81829542
:1003E0008F70A7019601282B809120019091210107
:1003F000A0E0B0E064E0F694E794D794C7946A95DF
:10040000D1F7C81AD90AEA0AFB0A73E0559547954D
:10041000379527957A95D1F7880F991FAA1FBB1F8B
:10042000281B390B4A0B5B0BA0912201B0912301D1
:100430000E9443082B013C017BE07594679457941C
:1004400047947A95D1F7A7019601C701B6010E949A
:1004500006089B01AC01ACE055954795379527956B
:10046000AA95D1F7A0912401B09125010E944308DB
:10047000BEE09595879577956795BA95D1F7460E25
:10048000571E681E791EA5E0B0E0A30192010E94EC
:10049000380860587F4F8F4F9F4F672F782F892FD5
:1004A000992787FD9A9560931C0170931D01809395
:1004B0001E0190931F0173016201F594E794D79494
:1004C000C7948AEFD81AE108F108C701B60142E0E3
:1004D00095958795779567954A95D1F79B01AC01DE
:1004E0000E9406084B015C01A0912A01B0912B01EA
:1004F0009B01AC016DE055954795379527956A9519
:10050000D1F70E9443082B013C0173E07594679476
:10051000579447947A95D1F7A0912801B091290179
:10052000A70196010E944308959587957795679551
:10053000460E571E681E791EB2E175946794579453
:100540004794BA95D1F7A301920130584F4F5F4FAE
:10055000A0912601B09127010E9438082B013C018F
:100560008FE075946794579447948A95D1F780E00B
:1005700090E0DC01411451046104710409F4CDC020
:10058000A50194016BE055954795379527956A9598
:10059000D1F7A0913001B09131010E9443084B0185
:1005A0005C01A0912E01B0912F01A70196010E943C
:1005B00043086B017C01CC0CDD1CEE1CFF1CC80C3D
:1005C000D91CEA1CFB1CA2E0F594E794D794C794CD
:1005D000AA95D1F72E2F30E040E050E0B4E0220F92
:1005E000331F441F551FBA95D1F7B12EB2941FE0A7
:1005F000B1222B298F2F90E0A0E0B0E06CE0880FB3
:10060000991FAA1FBB1F6A95D1F7282B392B4A2B9C
:100610005B2B80912C0190912D01092E000CAA0BCF
:10062000BB0BDC01992788278C0D9D1DAE1DBF1DBE
:10063000ECE0B595A79597958795EA95D1F7280FA2
:10064000391F4A1F5B1FABECB3EF0E944608805B6B
:100650009C4397FD80C0660F771F881F991FA301D9
:1006600092010E94160849015A01C501B40123E014
:1006700096958795779567952A95D1F79B01AC015B
:100680000E9406089B01AC016DE056954795379591
:1006900027956A95D1F7A0913601B09137010E9454
:1006A00043086B017C017CE0F594E794D794C794F0
:1006B0007A95D1F7A5019401E2E0569547953795D3
:1006C0002795EA95D1F7A0913401B09135010E94A8
:1006D0004308DC01CB01FDE0B595A795979587957B
:1006E000FA95D1F78C0D9D1DAE1DBF1D40913201B5
:1006F00050913301052E000C660B770B840F951F6C
:10070000A61FB71F14E0B595A795979587951A95DD
:10071000D1F7880D991DAA1DBB1D809318019093D8
:100720001901A0931A01B0931B010F900F900F9025
:100730000F900F900F90DF91CF911F91FF90EF904E
:10074000DF90CF90BF90AF909F908F907F906F90F1
:100750005F904F900895A30192010E9416084901ED
:100760005A01880C991CAA1CBB1C7FCF60911801F0
:100770007091190180911A0190911B010E946809E2
:1007800020E836EE45EC57E40E94C70821E03EED34
:1007900042E45EE30E94630A9B01AC0160E070E00A
:1007A00080E89FE30E945A082BE43AE34DEB57E3BD
:1007B0000E94C70808951F921FB61F9211248F939D
:1007C0009F938091150190911601019690931601C7
:1007D0008093150180911501909116018530910546
:1007E00038F081E0809317011092160110921501E4
:1007F0009F918F911F901FBE1F9018951F921FB63B
:100800001F9211242F938F939F93809113019091A6
:1008100014010196909314018093130180911301A8
:100820009091140180319E4020F01092140110929A
:1008300013019F918F912F911F901FBE1F901895AC
:100840001092C50087E68093C40088E18093C100C0
:1008500086E08093C20008951092170110928500DF
:100860001092840080918100846080938100809147
:10087000C00085FD04C0809117018130C1F78091CF
:1008800081008B7F809381000895CF93C82F0E94B1
:100890002C04C093C600CF9108950E942C0480912F
:1008A000C6000895CF93DF93EC010E942C0420979B
:1008B000B1F488E68093C6000E942C0481E0809306
:1008C000C6000E942C0484E08093C6000E942C0481
:1008D00083E98093C600DF91CF910C942C04C13042
:1008E000D10581F488E68093C6000E942C04C1E003
:1008F000C093C6000E942C04C093C6000E942C0422
:1009000086E9E7CFC230D10589F488E68093C60036
:100910000E942C0481E08093C6000E942C0482E097
:100920008093C6000E942C0485E9D3CFC330D10543
:1009300089F488E68093C6000E942C0481E08093AD
:10094000C6000E942C0480E28093C6000E942C0402
:1009500087E7BFCF249789F488E68093C6000E947A
:100960002C0481E08093C6000E942C0480E48093D4
:10097000C6000E942C0487E5ACCFDF91CF9108958B
:100980001F93CF93DF9300D000D0CDB7DEB785EAB9
:100990008A8386E989830E942C048091C6000E9484
:1009A0002C048091C600853A91F41C821B828D81B3
:1009B000853AB1F41A810E942C041093C6000F905E
:1009C0000F900F900F90DF91CF911F91089586396E
:1009D00039F41C821B828D81863911F41981EBCF89
:1009E0000E942C048EEF8093C600E9CFCF93DF9353
:1009F000C8E0D0E00E942C048091C6002197209787
:100A0000C9F7DF91CF910895EF92FF920F931F9353
:100A1000CF93DF93F82E162FD42FC22F80ED0E9494
:100A20009A00882341F0DF91CF911F910F91FF90A1
:100A3000EF900C94E6000E94E60080ED0E94BD005D
:100A400080E00E94EE008F2D0E94EE000E94E600E2
:100A500080ED0E94BD0081E00E94EE00812F0E9487
:100A6000EE000E94E60080ED0E94BD0082E00E9440
:100A7000EE008D2F0E94EE000E94E60080ED0E94A5
:100A8000BD0084E00E94EE008C2F0E94EE000E94C8
:100A9000E60080ED0E94BD0085E00E94EE00802F00
:100AA0000E94EE000E94E60080ED0E94BD0086E0FC
:100AB0000E94EE008E2D0E94EE000E94E60080ED66
:100AC0000E94BD0087E00E94EE0080E10E94EE00DF
:100AD000AACF80ED0E94BD0080E00E94EE0081ED73
:100AE0000E94E4000E941A01809304010E94E60023
:100AF00080ED0E94BD0081E00E94EE0081ED0E9429
:100B0000E4000E941A01809312010E94E60080ED29
:100B10000E94BD0082E00E94EE0081ED0E94E40090
:100B20000E941A01809303010E94E60080ED0E945A
:100B3000BD0084E00E94EE0081ED0E94E4000E946E
:100B40001A01809302010E94E60080ED0E94BD0020
:100B500085E00E94EE0081ED0E94E4000E941A01EF
:100B6000809301010E94E60080ED0E94BD0086E0B6
:100B70000E94EE0081ED0E94E4000E941A01809321
:100B800000010C94E600CF93DF93CDB7DEB72D972D
:100B90000FB6F894DEBF0FBECDBF8FEF8D8780916B
:100BA0000D0190910E01A0910F01B09110018C8761
:100BB00080910D0190910E01A0910F01B091100153
:100BC000892F9A2FAB2FBB278B8780910D01909196
:100BD0000E01A0910F01B0911001CD01AA27BB27F2
:100BE0008A8780910D0190910E01A0910F01B09123
:100BF00010018B2F9927AA27BB278987809109018C
:100C000090910A01A0910B01B0910C01888780910D
:100C1000090190910A01A0910B01B0910C01892F5B
:100C20009A2FAB2FBB278F838091090190910A01E6
:100C3000A0910B01B0910C01CD01AA27BB278E8397
:100C40008091090190910A01A0910B01B0910C01D2
:100C50008B2F9927AA27BB278D838091050190911F
:100C60000601A0910701B09108018C8380910501D4
:100C700090910601A0910701B0910801892F9A2F48
:100C8000AB2FBB278B838091050190910601A0912A
:100C90000701B0910801CD01AA27BB278A83809163
:100CA000050190910601A0910701B09108018B2FD9
:100CB0009927AA27BB2789838D858093C6000E9428
:100CC0002C0488E893E120E931E0F9013197F1F74C
:100CD00001970097D1F7809104018093C6000E948C
:100CE0002C0488E893E120E931E0F9013197F1F72C
:100CF00001970097D1F7809112018093C6000E945E
:100D00002C0488E893E120E931E0F9013197F1F70B
:100D100001970097D1F7809103018093C6000E944C
:100D20002C0488E893E120E931E0F9013197F1F7EB
:100D300001970097D1F7809102018093C6000E942D
:100D40002C0488E893E120E931E0F9013197F1F7CB
:100D500001970097D1F7809101018093C6000E940E
:100D60002C0488E893E120E931E0F9013197F1F7AB
:100D700001970097D1F7809100018093C6000E94EF
:100D80002C0488E893E120E931E0F9013197F1F78B
:100D900001970097D1F78C858093C6000E942C04A0
:100DA00088E893E120E931E0F9013197F1F7019703
:100DB0000097D1F78B858093C6000E942C0488E8A9
:100DC00093E120E931E0F9013197F1F701970097BC
:100DD000D1F78A858093C6000E942C0488E893E1AD
:100DE00020E931E0F9013197F1F701970097D1F748
:100DF00089858093C6000E942C0488E893E120E94D
:100E000031E0F9013197F1F701970097D1F7888523
:100E10008093C6000E942C0488E893E120E931E029
:100E2000F9013197F1F701970097D1F78F818093FE
:100E3000C6000E942C0488E893E120E931E0F90122
:100E40003197F1F701970097D1F78E818093C60013
:100E50000E942C0488E893E120E931E0F901319700
:100E6000F1F701970097D1F78D818093C6000E941A
:100E70002C0488E893E120E931E0F9013197F1F79A
:100E800001970097D1F78C818093C6000E942C04B3
:100E900088E893E120E931E0F9013197F1F7019712
:100EA0000097D1F78B818093C6000E942C0488E8BC
:100EB00093E120E931E0F9013197F1F701970097CB
:100EC000D1F78A818093C6000E942C0488E893E1C0
:100ED00020E931E0F9013197F1F701970097D1F757
:100EE00089818093C6000E942C0488E893E120E960
:100EF00031E0F9013197F1F701970097D1F780E0E0
:100F000090E02D960FB6F894DEBF0FBECDBFDF91F7
:100F1000CF910895CF9389E00E94BD0081E00E94A7
:100F2000EE008AE00E94E4000E941001C82F0E9497
:100F3000E6000E942C04C093C600CF9108950C9443
:100F40005D010E948D010E94B60180911C0190916B
:100F50001D01A0911E01B0911F0180930D0190937E
:100F60000E01A0930F01B093100180911801909190
:100F70001901A0911A01B0911B018093090190936E
:100F80000A01A0930B01B0930C010E94B60320E06C
:100F900030E048EC52E40E94F6090E943909462FDD
:100FA000572FBC0140930501509306016093070140
:100FB000709308010895289A08952898089583B792
:100FC000817F846083BF83B7816083BF889583B747
:100FD0008E7F83BF0895E9E6F0E08081836080839F
:100FE000E89A209A78940E9420040C9494000E941D
:100FF000EB07C0E9D1E00E94C00480E395E7FE0161
:101000003197F1F701970097D1F7F5CFDB018F9377
:101010009F930E943808BF91AF91A29F800D911DB0
:10102000A39F900DB29F900D11240895A1E21A2E56
:10103000AA1BBB1BFD010DC0AA1FBB1FEE1FFF1F7C
:10104000A217B307E407F50720F0A21BB30BE40BCC
:10105000F50B661F771F881F991F1A9469F7609513
:101060007095809590959B01AC01BD01CF010895CD
:101070000E944B08A59F900DB49F900DA49F800DDA
:10108000911D11240895B7FF0C9438080E94380868
:10109000821B930B0895A29FB001B39FC001A39F31
:1010A000700D811D1124911DB29F700D811D1124A1
:1010B000911D08955058BB27AA270E9472080C94CE
:1010C000BC090E94AE0938F00E94B50920F039F43D
:1010D0009F3F19F426F40C94AB090EF4E095E7FB5E
:1010E0000C94A509E92F0E94CD0958F3BA1762079D
:1010F00073078407950720F079F4A6F50C94EF099F
:101100000EF4E0950B2EBA2FA02D0B01B901900122
:101110000C01CA01A0011124FF27591B99F0593F66
:1011200050F4503E68F11A16F040A22F232F342FAE
:101130004427585FF3CF469537952795A795F040FC
:101140005395C9F77EF41F16BA0B620B730B840B11
:10115000BAF09150A1F0FF0FBB1F661F771F881FC9
:10116000C2F70EC0BA0F621F731F841F48F4879521
:1011700077956795B795F7959E3F08F0B0CF939513
:10118000880F08F09927EE0F9795879508950E948C
:10119000DB080C94BC090E94B50958F00E94AE0906
:1011A00040F029F45F3F29F00C94A50951110C94EB
:1011B000F0090C94AB090E94CD0968F39923B1F3AF
:1011C000552391F3951B550BBB27AA27621773076D
:1011D000840738F09F5F5F4F220F331F441FAA1F01
:1011E000A9F335D00E2E3AF0E0E832D091505040BD
:1011F000E695001CCAF72BD0FE2F29D0660F771F6B
:10120000881FBB1F261737074807AB07B0E809F050
:10121000BB0B802DBF01FF2793585F4F3AF09E3FD5
:10122000510578F00C94A5090C94F0095F3FE4F3A4
:10123000983ED4F3869577956795B795F7959F5F18
:10124000C9F7880F911D9695879597F90895E1E064
:10125000660F771F881FBB1F621773078407BA07C3
:1012600020F0621B730B840BBA0BEE1F88F7E0951E
:1012700008950E94D50988F09F5798F0B92F9927B3
:10128000B751B0F0E1F0660F771F881F991F1AF071
:10129000BA95C9F714C0B13091F00E94EF09B1E0DE
:1012A00008950C94EF09672F782F8827B85F39F0DD
:1012B000B93FCCF3869577956795B395D9F73EF40A
:1012C00090958095709561957F4F8F4F9F4F0895B2
:1012D000E89409C097FB3EF49095809570956195D0
:1012E0007F4F8F4F9F4F9923A9F0F92F96E9BB2786
:1012F0009395F695879577956795B795F111F8CF02
:10130000FAF4BB0F11F460FF1BC06F5F7F4F8F4F6C
:101310009F4F16C0882311F096E911C0772321F062
:101320009EE8872F762F05C0662371F096E8862FFA
:1013300070E060E02AF09A95660F771F881FDAF751
:10134000880F9695879597F9089597F99F6780E894
:1013500070E060E008959FEF80EC089500240A9407
:101360001616170618060906089500240A94121680
:101370001306140605060895092E0394000C11F4B3
:10138000882352F0BB0F40F4BF2B11F460FF04C060
:101390006F5F7F4F8F4F9F4F089557FD9058440FB9
:1013A000551F59F05F3F71F04795880F97FB991FC4
:1013B00061F09F3F79F08795089512161306140681
:1013C000551FF2CF4695F1DF08C01616170618060E
:1013D000991FF1CF86957105610508940895E894E9
:1013E000BB2766277727CB0197F908950E94090A42
:1013F0000C94BC090E94AE0938F00E94B50920F097
:10140000952311F00C94A5090C94AB0911240C94AC
:10141000F0090E94CD0970F3959FC1F3950F50E03C
:10142000551F629FF001729FBB27F00DB11D639F96
:10143000AA27F00DB11DAA1F649F6627B00DA11D3C
:10144000661F829F2227B00DA11D621F739FB00DE2
:10145000A11D621F839FA00D611D221F749F332752
:10146000A00D611D231F849F600D211D822F762FEB
:101470006A2F11249F5750409AF0F1F088234AF0C8
:10148000EE0FFF1FBB1F661F771F881F9150504034
:10149000A9F79E3F510580F00C94A5090C94F00922
:1014A0005F3FE4F3983ED4F3869577956795B795BB
:1014B000F795E7959F5FC1F7FE2B880F911D9695D5
:1014C000879597F90895FA01EE0FFF1F30962105D1
:1014D0003105A1F16115710561F48038BFE39B0707
:1014E00049F168949038810561F08038BFEF9B071F
:1014F00041F099234AF5FF3FE1053105210519F136
:10150000E8940894E795D901AA2329F4AB2FBE2FBC
:10151000F85FD0F310C0FF5F70F4A695E0F7F739DD
:1015200050F019F0FF3A38F49F779F930DD00F9049
:1015300007FC9058089546F00C94AB0960E070E009
:1015400080E89FE308954FE79F775F934F933F9322
:101550002F930E945E0B2F913F914F915F910E94BC
:10156000F6090C94BB0A29F416F00C94A5090C9406
:10157000EF090C94AB090E94D509A8F39638A0F79F
:1015800007F80F92E8942BE33AEA48EB5FE70E94F2
:101590000C0A0F920F920F924DB75EB70F920E94F6
:1015A000A60BE8E6F0E00E94ED0A4F915F91EF9103
:1015B000FF91E595EE1FFF1F49F0FE57E0684427B5
:1015C000EE0F441FFA95E1F74195550B0E94200B51
:1015D0000F9007FE0C94140B0895DF93CF931F9385
:1015E0000F93FF92EF92DF927B018C01689406C00B
:1015F000DA2EEF010E94090AFE01E894A5912591D7
:10160000359145915591A6F3EF010E947208FE01B4
:101610009701A801DA9469F7DF90EF90FF900F919E
:101620001F91CF91DF9108959B01AC0160E070E0C4
:1016300080E89FE30C94C7080C94A5090C94DA0B7E
:101640000E94D509D8F39923C9F3940F511DA3F330
:101650009150504094F059F0882332F0660F771F74
:10166000881F91505040C1F79E3F51052CF7880FBD
:10167000911D9695879597F908955F3FACF0983E38
:101680009CF0BB27869577956795B79508F4B16070
:101690009395C1F7BB0F58F711F460FFE8CF6F5F68
:1016A0007F4F8F4F9F4FE3CF0C94F00916F00C94AF
:1016B000DA0B0C94AB0968940C94A5090E94D50927
:1016C000A8F39923C1F3AEF3DF93CF931F930F9346
:1016D000FF92C92FDD2788232AF02197660F771FF5
:1016E000881FDAF720E030E040E85FEB9FE38839BD
:1016F00020F0803E38F021968F770E945B08E0E969
:10170000F0E004C00E945B08EDEBF0E00E94ED0AFF
:101710008B01BE01EC01FB2E6F5771097595771F88
:10172000880B990B0E946A0928E132E741E35FE3E5
:101730000E94090AAF2D9801AE01FF900F911F91F1
:10174000CF91DF910E9472080C94BC09FA01DC0170
:10175000AA0FBB1F9B01AC01BF5728F422273327D8
:101760004427507820C0B75190F4AB2F0024469501
:1017700037952795011CA395D2F3002071F0220F15
:10178000331F441FB395DAF30ED00C945A0861301E
:101790007105A0E88A07B94630F49B01AC016627C1
:1017A000772788279078309621F0208331834283F1
:1017B000538308959F3F31F0915020F4879577959A
:1017C0006795B795880F911D9695879597F9089518
:0417D000F894FFCFBB
:1017D400180115111277000000660000001E0000B9
:0217E400000003
:00000001FF
